{
  "_format": "hh-sol-artifact-1",
  "contractName": "Fundraising",
  "sourceName": "contracts/Fundraising.sol",
  "abi": [
    {
      "inputs": [
        {
          "internalType": "uint256",
          "name": "_goal",
          "type": "uint256"
        },
        {
          "internalType": "uint256",
          "name": "_deadline",
          "type": "uint256"
        }
      ],
      "stateMutability": "nonpayable",
      "type": "constructor"
    },
    {
      "anonymous": false,
      "inputs": [
        {
          "indexed": false,
          "internalType": "address",
          "name": "_sender",
          "type": "address"
        },
        {
          "indexed": false,
          "internalType": "uint256",
          "name": "_value",
          "type": "uint256"
        }
      ],
      "name": "ContributeEvent",
      "type": "event"
    },
    {
      "anonymous": false,
      "inputs": [
        {
          "indexed": true,
          "internalType": "address",
          "name": "previousOwner",
          "type": "address"
        },
        {
          "indexed": true,
          "internalType": "address",
          "name": "newOwner",
          "type": "address"
        }
      ],
      "name": "OwnershipTransferred",
      "type": "event"
    },
    {
      "inputs": [],
      "name": "admin",
      "outputs": [
        {
          "internalType": "address",
          "name": "",
          "type": "address"
        }
      ],
      "stateMutability": "view",
      "type": "function"
    },
    {
      "inputs": [],
      "name": "contribute",
      "outputs": [],
      "stateMutability": "payable",
      "type": "function"
    },
    {
      "inputs": [
        {
          "internalType": "address",
          "name": "",
          "type": "address"
        }
      ],
      "name": "contributors",
      "outputs": [
        {
          "internalType": "uint256",
          "name": "",
          "type": "uint256"
        }
      ],
      "stateMutability": "view",
      "type": "function"
    },
    {
      "inputs": [],
      "name": "deadline",
      "outputs": [
        {
          "internalType": "uint256",
          "name": "",
          "type": "uint256"
        }
      ],
      "stateMutability": "view",
      "type": "function"
    },
    {
      "inputs": [],
      "name": "getAddress",
      "outputs": [
        {
          "internalType": "address",
          "name": "",
          "type": "address"
        }
      ],
      "stateMutability": "view",
      "type": "function"
    },
    {
      "inputs": [],
      "name": "getAdmin",
      "outputs": [
        {
          "internalType": "address",
          "name": "",
          "type": "address"
        }
      ],
      "stateMutability": "view",
      "type": "function"
    },
    {
      "inputs": [],
      "name": "getBalance",
      "outputs": [
        {
          "internalType": "uint256",
          "name": "",
          "type": "uint256"
        }
      ],
      "stateMutability": "view",
      "type": "function"
    },
    {
      "inputs": [
        {
          "internalType": "address",
          "name": "contributor",
          "type": "address"
        }
      ],
      "name": "getContributors",
      "outputs": [
        {
          "internalType": "uint256",
          "name": "",
          "type": "uint256"
        }
      ],
      "stateMutability": "view",
      "type": "function"
    },
    {
      "inputs": [],
      "name": "getDeadline",
      "outputs": [
        {
          "internalType": "uint256",
          "name": "",
          "type": "uint256"
        }
      ],
      "stateMutability": "view",
      "type": "function"
    },
    {
      "inputs": [],
      "name": "getGoal",
      "outputs": [
        {
          "internalType": "uint256",
          "name": "",
          "type": "uint256"
        }
      ],
      "stateMutability": "view",
      "type": "function"
    },
    {
      "inputs": [],
      "name": "getMinContribute",
      "outputs": [
        {
          "internalType": "uint256",
          "name": "",
          "type": "uint256"
        }
      ],
      "stateMutability": "view",
      "type": "function"
    },
    {
      "inputs": [],
      "name": "getNoOfContribute",
      "outputs": [
        {
          "internalType": "uint256",
          "name": "",
          "type": "uint256"
        }
      ],
      "stateMutability": "view",
      "type": "function"
    },
    {
      "inputs": [],
      "name": "getRaisedAmount",
      "outputs": [
        {
          "internalType": "uint256",
          "name": "",
          "type": "uint256"
        }
      ],
      "stateMutability": "view",
      "type": "function"
    },
    {
      "inputs": [],
      "name": "goal",
      "outputs": [
        {
          "internalType": "uint256",
          "name": "",
          "type": "uint256"
        }
      ],
      "stateMutability": "view",
      "type": "function"
    },
    {
      "inputs": [],
      "name": "minimumContribution",
      "outputs": [
        {
          "internalType": "uint256",
          "name": "",
          "type": "uint256"
        }
      ],
      "stateMutability": "view",
      "type": "function"
    },
    {
      "inputs": [],
      "name": "noOfContributors",
      "outputs": [
        {
          "internalType": "uint256",
          "name": "_value",
          "type": "uint256"
        }
      ],
      "stateMutability": "view",
      "type": "function"
    },
    {
      "inputs": [],
      "name": "owner",
      "outputs": [
        {
          "internalType": "address",
          "name": "",
          "type": "address"
        }
      ],
      "stateMutability": "view",
      "type": "function"
    },
    {
      "inputs": [],
      "name": "raisedAmount",
      "outputs": [
        {
          "internalType": "uint256",
          "name": "",
          "type": "uint256"
        }
      ],
      "stateMutability": "view",
      "type": "function"
    },
    {
      "inputs": [],
      "name": "renounceOwnership",
      "outputs": [],
      "stateMutability": "nonpayable",
      "type": "function"
    },
    {
      "inputs": [
        {
          "internalType": "uint256",
          "name": "_deadline",
          "type": "uint256"
        }
      ],
      "name": "setDeadline",
      "outputs": [],
      "stateMutability": "nonpayable",
      "type": "function"
    },
    {
      "inputs": [
        {
          "internalType": "uint256",
          "name": "_goal",
          "type": "uint256"
        }
      ],
      "name": "setGoal",
      "outputs": [],
      "stateMutability": "nonpayable",
      "type": "function"
    },
    {
      "inputs": [
        {
          "internalType": "address",
          "name": "newOwner",
          "type": "address"
        }
      ],
      "name": "transferOwnership",
      "outputs": [],
      "stateMutability": "nonpayable",
      "type": "function"
    },
    {
      "stateMutability": "payable",
      "type": "receive"
    }
  ],
  "bytecode": "0x60806040523480156200001157600080fd5b506040516200126b3803806200126b8339818101604052810190620000379190620001b1565b620000576200004b620000ce60201b60201c565b620000d660201b60201c565b62000067620000ce60201b60201c565b600260006101000a81548173ffffffffffffffffffffffffffffffffffffffff021916908373ffffffffffffffffffffffffffffffffffffffff1602179055508160068190555063635579dc600581905550655af3107a4000600481905550505062000216565b600033905090565b60008060009054906101000a900473ffffffffffffffffffffffffffffffffffffffff169050816000806101000a81548173ffffffffffffffffffffffffffffffffffffffff021916908373ffffffffffffffffffffffffffffffffffffffff1602179055508173ffffffffffffffffffffffffffffffffffffffff168173ffffffffffffffffffffffffffffffffffffffff167f8be0079c531659141344cd1fd0a4f28419497f9722a3daafe3b4186f6b6457e060405160405180910390a35050565b600081519050620001ab81620001fc565b92915050565b60008060408385031215620001c557600080fd5b6000620001d5858286016200019a565b9250506020620001e8858286016200019a565b9150509250929050565b6000819050919050565b6200020781620001f2565b81146200021357600080fd5b50565b61104580620002266000396000f3fe6080604052600436106101395760003560e01c80636e9960c3116100ab578063b97a7d241161006f578063b97a7d2414610593578063c59ee1dc146105be578063d7bb99ba146105e9578063e40ba582146105f3578063f2fde38b1461061e578063f851a44014610647576102d2565b80636e9960c3146104d0578063715018a6146104fb5780638da5cb5b146105125780638e75e4821461053d578063937e09b114610568576102d2565b806340193883116100fd57806340193883146103be57806343e9658c146103e957806348ee2350146104265780634b29c448146104515780634e260f6f1461047a5780635f8d96de146104a5576102d2565b806312065fe0146102d7578063195199f6146103025780631f6d49421461032b57806329dcb0cf1461036857806338cc483114610393576102d2565b366102d2576005544210610182576040517f08c379a000000000000000000000000000000000000000000000000000000000815260040161017990610ed4565b60405180910390fd5b6004543410156101c7576040517f08c379a00000000000000000000000000000000000000000000000000000000081526004016101be90610e94565b60405180910390fd5b6000600160003373ffffffffffffffffffffffffffffffffffffffff1673ffffffffffffffffffffffffffffffffffffffff16815260200190815260200160002054141561021a576102196003610672565b5b3460016000610227610688565b73ffffffffffffffffffffffffffffffffffffffff1673ffffffffffffffffffffffffffffffffffffffff16815260200190815260200160002060008282546102709190610f20565b9250508190555034600760008282546102899190610f20565b925050819055507f2daf61dec57a2c194e9e87958b1a40a5c236b5e8c6041655d664ddbd16c293206102b9610688565b346040516102c8929190610e2b565b60405180910390a1005b600080fd5b3480156102e357600080fd5b506102ec610690565b6040516102f99190610ef4565b60405180910390f35b34801561030e57600080fd5b5061032960048036038101906103249190610c3d565b610698565b005b34801561033757600080fd5b50610352600480360381019061034d9190610c14565b6106f8565b60405161035f9190610ef4565b60405180910390f35b34801561037457600080fd5b5061037d610710565b60405161038a9190610ef4565b60405180910390f35b34801561039f57600080fd5b506103a8610716565b6040516103b59190610e10565b60405180910390f35b3480156103ca57600080fd5b506103d361071e565b6040516103e09190610ef4565b60405180910390f35b3480156103f557600080fd5b50610410600480360381019061040b9190610c14565b610724565b60405161041d9190610ef4565b60405180910390f35b34801561043257600080fd5b5061043b610775565b6040516104489190610ef4565b60405180910390f35b34801561045d57600080fd5b5061047860048036038101906104739190610c3d565b610786565b005b34801561048657600080fd5b5061048f610798565b60405161049c9190610ef4565b60405180910390f35b3480156104b157600080fd5b506104ba6107a4565b6040516104c79190610ef4565b60405180910390f35b3480156104dc57600080fd5b506104e56107ae565b6040516104f29190610e10565b60405180910390f35b34801561050757600080fd5b506105106107d8565b005b34801561051e57600080fd5b506105276107ec565b6040516105349190610e10565b60405180910390f35b34801561054957600080fd5b50610552610815565b60405161055f9190610ef4565b60405180910390f35b34801561057457600080fd5b5061057d610827565b60405161058a9190610ef4565b60405180910390f35b34801561059f57600080fd5b506105a861082d565b6040516105b59190610ef4565b60405180910390f35b3480156105ca57600080fd5b506105d3610837565b6040516105e09190610ef4565b60405180910390f35b6105f161083d565b005b3480156105ff57600080fd5b506106086109e6565b6040516106159190610ef4565b60405180910390f35b34801561062a57600080fd5b5061064560048036038101906106409190610c14565b6109f0565b005b34801561065357600080fd5b5061065c610a74565b6040516106699190610e10565b60405180910390f35b6001816000016000828254019250508190555050565b600033905090565b600047905090565b6106a0610a9a565b600081116106e3576040517f08c379a00000000000000000000000000000000000000000000000000000000081526004016106da90610e74565b60405180910390fd5b80426106ef9190610f20565b60058190555050565b60016020528060005260406000206000915090505481565b60055481565b600030905090565b60065481565b600061072e610a9a565b600160008373ffffffffffffffffffffffffffffffffffffffff1673ffffffffffffffffffffffffffffffffffffffff168152602001908152602001600020549050919050565b60006107816003610b18565b905090565b61078e610a9a565b8060068190555050565b60038060000154905081565b6000600554905090565b6000600260009054906101000a900473ffffffffffffffffffffffffffffffffffffffff16905090565b6107e0610a9a565b6107ea6000610b26565b565b60008060009054906101000a900473ffffffffffffffffffffffffffffffffffffffff16905090565b600061081f610a9a565b600754905090565b60045481565b6000600654905090565b60075481565b6005544210610881576040517f08c379a000000000000000000000000000000000000000000000000000000000815260040161087890610ed4565b60405180910390fd5b6000655af3107a400090503073ffffffffffffffffffffffffffffffffffffffff166108fc829081150290604051600060405180830381858888f193505050501580156108d2573d6000803e3d6000fd5b506000600160006108e1610688565b73ffffffffffffffffffffffffffffffffffffffff1673ffffffffffffffffffffffffffffffffffffffff16815260200190815260200160002054141561092d5761092c6003610672565b5b806001600061093a610688565b73ffffffffffffffffffffffffffffffffffffffff1673ffffffffffffffffffffffffffffffffffffffff16815260200190815260200160002060008282546109839190610f20565b92505081905550806007600082825461099c9190610f20565b925050819055507f2daf61dec57a2c194e9e87958b1a40a5c236b5e8c6041655d664ddbd16c293206109cc610688565b826040516109db929190610e2b565b60405180910390a150565b6000600454905090565b6109f8610a9a565b600073ffffffffffffffffffffffffffffffffffffffff168173ffffffffffffffffffffffffffffffffffffffff161415610a68576040517f08c379a0000000000000000000000000000000000000000000000000000000008152600401610a5f90610e54565b60405180910390fd5b610a7181610b26565b50565b600260009054906101000a900473ffffffffffffffffffffffffffffffffffffffff1681565b610aa2610688565b73ffffffffffffffffffffffffffffffffffffffff16610ac06107ec565b73ffffffffffffffffffffffffffffffffffffffff1614610b16576040517f08c379a0000000000000000000000000000000000000000000000000000000008152600401610b0d90610eb4565b60405180910390fd5b565b600081600001549050919050565b60008060009054906101000a900473ffffffffffffffffffffffffffffffffffffffff169050816000806101000a81548173ffffffffffffffffffffffffffffffffffffffff021916908373ffffffffffffffffffffffffffffffffffffffff1602179055508173ffffffffffffffffffffffffffffffffffffffff168173ffffffffffffffffffffffffffffffffffffffff167f8be0079c531659141344cd1fd0a4f28419497f9722a3daafe3b4186f6b6457e060405160405180910390a35050565b600081359050610bf981610fe1565b92915050565b600081359050610c0e81610ff8565b92915050565b600060208284031215610c2657600080fd5b6000610c3484828501610bea565b91505092915050565b600060208284031215610c4f57600080fd5b6000610c5d84828501610bff565b91505092915050565b610c6f81610f76565b82525050565b6000610c82602683610f0f565b91507f4f776e61626c653a206e6577206f776e657220697320746865207a65726f206160008301527f64647265737300000000000000000000000000000000000000000000000000006020830152604082019050919050565b6000610ce8600c83610f0f565b91507f496e76616c69642074696d6500000000000000000000000000000000000000006000830152602082019050919050565b6000610d28602583610f0f565b91507f546865204d696e696d756d20436f6e747269627574696f6e20686173206e6f7460008301527f206d6574210000000000000000000000000000000000000000000000000000006020830152604082019050919050565b6000610d8e602083610f0f565b91507f4f776e61626c653a2063616c6c6572206973206e6f7420746865206f776e65726000830152602082019050919050565b6000610dce601883610f0f565b91507f54686520446561646c696e6520686173207061737365642100000000000000006000830152602082019050919050565b610e0a81610fa8565b82525050565b6000602082019050610e256000830184610c66565b92915050565b6000604082019050610e406000830185610c66565b610e4d6020830184610e01565b9392505050565b60006020820190508181036000830152610e6d81610c75565b9050919050565b60006020820190508181036000830152610e8d81610cdb565b9050919050565b60006020820190508181036000830152610ead81610d1b565b9050919050565b60006020820190508181036000830152610ecd81610d81565b9050919050565b60006020820190508181036000830152610eed81610dc1565b9050919050565b6000602082019050610f096000830184610e01565b92915050565b600082825260208201905092915050565b6000610f2b82610fa8565b9150610f3683610fa8565b9250827fffffffffffffffffffffffffffffffffffffffffffffffffffffffffffffffff03821115610f6b57610f6a610fb2565b5b828201905092915050565b6000610f8182610f88565b9050919050565b600073ffffffffffffffffffffffffffffffffffffffff82169050919050565b6000819050919050565b7f4e487b7100000000000000000000000000000000000000000000000000000000600052601160045260246000fd5b610fea81610f76565b8114610ff557600080fd5b50565b61100181610fa8565b811461100c57600080fd5b5056fea2646970667358221220efe7d801605484227d8420a0c17fe08af76b2b37d8eb65ff87462cb1a4829b9f64736f6c63430008000033",
  "linkReferences": {},
  "deployedLinkReferences": {}
}